:100000000C94B1000C94CE000C94CE000C94CE0055
:100010000C94CE000C94CE000C94CE000C94CE0028
:100020000C94CE000C9436010C94CE000C94CE00AF
:100030000C94CE000C94CE000C94CE000C94CE0008
:100040000C94CE000C94CE000C94CE000C94CE00F8
:100050000C94CE000C94CE000C94CE000C94CE00E8
:100060000C94CE000C94CE0000407A10F35A00A0FD
:10007000724E18090010A5D4E80000E87648170071
:1000800000E40B54020000CA9A3B000000E1F505B1
:10009000000080969800000040420F000000A086FB
:1000A00001000000102700000000E803000000002D
:1000B0006400000000000A000000000001000000D1
:1000C00000002C76D888DC674F0823DFC1DFAE59EB
:1000D000E1B1B796E5E3E453C63AE651997696E87E
:1000E000E6C28426EB898C9B62ED407C6FFCEFBC02
:1000F0009C9F40F2BAA56FA5F490055A2AF75C932D
:100100006B6CF9676DC11BFCE0E40D47FEF520E662
:10011000B500D0ED902E0300943577050080841E45
:10012000080000204E0A000000C80C333333330FA0
:10013000986E12831141EF8D2114893BE65516CF3D
:10014000FEE6DB18D1844B381BF77C1D901DA4BB49
:10015000E424203284725E228100C9F124ECA1E5FE
:100160003D2711241FBECFEFD8E0DEBFCDBF11E089
:10017000A0E0B1E0EAE4FAE002C005900D92AC31F3
:10018000B107D9F721E0ACE1B1E001C01D92AE3179
:10019000B207E1F70E94D0000C9423050C940000F4
:1001A0000E9415018FEF87BD2FEF39EF90E02150AE
:1001B00030409040E1F700C0000081508111F3CF42
:1001C0008FEF88BD2FEF39EF90E021503040904005
:1001D000E1F700C0000081508111F3CFE3CFCF934E
:1001E000DF93482F392FF62F6AE070E00E94460215
:1001F000282FE5E0CAE0D0E0F53061F4822FDF91EE
:10020000CF910895842F932FBE010E944602282F7C
:10021000FE17A1F3842F932FBE010E944602462FA2
:10022000372FE150E111EECFE9CF0E942D010E945E
:1002300012020E9425012FEF81EE94E021508040B0
:100240009040E1F700C0000008958AB180668AB945
:1002500081EA84BD81E085BD0895259A82E080937E
:10026000B10081E080937000789408951F921FB6CA
:100270001F9211242F938F939F9380911C01909133
:100280001D01823A27E0920760F4019690931D01C8
:1002900080931C019F918F912F911F901FBE1F90E3
:1002A000189510921D0110921C0185B190E28927CA
:1002B00085B9F0CF9091C00095FFFCCF8093C60028
:1002C00008950F931F93CF93DF93EC0197FF06C020
:1002D000D195C195D1098DE20E945A0101E0102FFC
:1002E0000F5F612FCE010E94EF008823C1F316300B
:1002F00028F0DF91CF911F910F910895612FCE01CA
:100300000E94EF00805D0E945A011F5FF0CFCF93E3
:10031000DF93EC018991811103C0DF91CF910895A2
:100320000E945A01F7CFEF92FF920F931F93CF9342
:10033000DF93EC0182E60E945A01209701F100E16F
:1003400010E0E12C90E8F92ECE018E219F21892B1F
:1003500091F081E090E00E946101F694E7940150F1
:1003600011090115110581F7DF91CF911F910F91AF
:10037000FF90EF90089580E30E945A01EECF80E055
:1003800091E0DF91CF911F910F91FF90EF900C942E
:100390008701CF93C82F88E70E945A018C2F82953E
:1003A0008F702C2F2F7090E3C03A08F097E3890FDD
:1003B000C0E32A3008F0C7E3C20F0E945A018C2F15
:1003C000CF910C945A010F931F93CF93DF93CDB726
:1003D000DEB7A2970FB6F894DEBF0FBECDBF8E0179
:1003E0000B5E1F4F23E045E06F8F78A389A39AA38C
:1003F0006F8D78A189A19AA10E945A02B801CE01FD
:1004000001960E948702CE0101960E948701A29662
:100410000FB6F894DEBF0FBECDBFDF91CF911F9115
:100420000F910895E1ECF0E0808188618083E2EC37
:10043000F0E08081866080831092C50083E3809322
:10044000C40080E890E00E94610189E00E945A01A6
:100450008FE090E00E94930189E00E945A0167E3D7
:1004600079E881E890E40E94E30189E00E945A0162
:1004700087EF0E94C90189E00E945A0181E191E061
:100480000E94870189E191E00C948701AA1BBB1BA4
:1004900051E107C0AA1FBB1FA617B70710F0A61B84
:1004A000B70B881F991F5A95A9F780959095BC01A5
:1004B000CD010895EF920F931F93CF93DF9300D058
:1004C00000D00F92CDB7DEB7322F0D8354E047FD39
:1004D00054E1242F27FD2195E52E032F4D81512F27
:1004E00069837A838B839C8369817A818B819C81E8
:1004F0000E948E028D81912F0F900F900F900F9080
:100500000F90DF91CF911F910F91EF900895FB0114
:10051000DC0101900D920020E1F70895ADE0B0E01C
:10052000E4E9F2E00C94ED046A01722E602EFE2CD8
:10053000102F2BE3201708F41BE31F5F012F27E088
:10054000AE014F5F5F4F6A877B878C879D876A8587
:100550007B858C859D850E940D044C010981902F1F
:100560009970802F88703F2D3071913039F4882335
:1005700009F4FAC07DE2A72E84E0BBC0B82EF1FCDE
:10058000ADC04F2D4170A42E442309F477C08111D2
:10059000ACC002FDF0C0F0E23F2E540197FE02C055
:1005A000A12CB12C41E050E0311002C040E050E0FD
:1005B000C5010196840F951F462C512CA2014F5F57
:1005C0005F4F611002C040E050E0840F951F472D3F
:1005D00050E0272D281B841795070CF020E03601EA
:1005E000FFEF6F1A7F0A332309F4CCC0332019F0D0
:1005F000D6013C926301180D3A81802F80718823C7
:1006000019F0313309F4115011160CF0E7C019300C
:1006100008F018E0F401EA19FB0941E050E04C0F42
:100620005D1FE40FF51FA401411B51095194419432
:1006300051087EE28A149B040CF4D2C04A155B0573
:100640000CF0CEC09181B1E0AB1AB10836016FEF6A
:10065000661A760A3196A414B5040CF4C3C0D60108
:100660009C93BFEFAB16BB0639F4360162E0660E11
:10067000711CD60111967C936301DCCF811138C0C7
:10068000502F5470352E552309F487CF83E0E72C83
:10069000E81A871508F0E12C31110BC00E2D10E07F
:1006A000A80160E270E0C6010E94E504C00ED11E00
:1006B000E12CBB2019F0F601B1926F0186010D5FAC
:1006C0001F4F29E69EE686E6F2FE03C029E49EE47B
:1006D00086E4F60120839183828332C0811141C078
:1006E00002FD4DC0EBE23E2E58CF60E2A62E44CF75
:1006F00083E0E72CE81A871508F0E12C31110BC0D4
:100700000E2D10E0A80160E270E0C6010E94E50431
:10071000C00ED11EE12CAA2019F0F601A1926F01A2
:1007200086010D5F1F4F91E68EE6F2FE02C091E456
:100730008EE4D6018C9311969C93119712968C930C
:10074000F12CA70160E270E0C8010E94E504F80105
:10075000EE0DFF1D10828EEF9FEF2D96E1E10C94C0
:1007600009055BE2A52E08CF4DE2B42E02FD05C0BF
:100770008DE2382E12CF20E2B22E84E088CF9BE2A9
:10078000B92EFBCFF3FC18C0E22EF12CA70160E2DA
:1007900070E0C6010E94E50436016E0C7F1C20E06B
:1007A000332071F0FFEFEF1AFF0AD3013C9220E0F3
:1007B00036016E0C7F1C04C0332071F0F6013082CC
:1007C000C22ED12CA60160E370E0C3010E94E504B3
:1007D000C60CD71C20E00FCF3601F2CF11E01ACFA4
:1007E00090E331CF8A149B0439F4363320F4353347
:1007F00019F4811101C091E3F6019083E22EF12CEE
:10080000A70160E270E0C3010E94E504F301EE0D70
:10081000FF1D108280E090E0A0CF283008F027E094
:100820003327DA01990F311D87FD9160009661052C
:10083000710539F432602E5F3D9330E32A95E1F77C
:1008400008959F3F30F080387105610509F03C5FE5
:100850003C5F3D93913008F08068911DDF93CF930A
:100860001F930F93FF92EF92192F987F9695E92F80
:1008700096959695E90FFF27EE53FF4F992733275B
:10088000EE24FF24A701E70105900894079428F4BB
:10089000360FE71EF81E491F511D660F771F881F70
:1008A000991F0694A1F70590079428F4E70EF81E07
:1008B000491F561FC11D770F881F991F661F069479
:1008C000A1F70590079428F4F80E491F561FC71F7B
:1008D000D11D880F991F661F771F0694A1F70590F9
:1008E000079420F4490F561FC71FD81F990F661F82
:1008F000771F881F0694A9F784911095177041F00F
:10090000D695C79557954795F794E7941A95C1F7EB
:10091000E8E6F0E068941590159135916591959110
:1009200005907FE27395E118F10A430B560BC90B52
:10093000D009C0F7E10CF11E431F561FC91FD01D7F
:100940007EF4703311F48A95E6CFE894015030F0CC
:10095000080F0AF40027021708F4202F2395022F0E
:100960007A3328F079E37D932A95E9F710C07D93D7
:100970002A9589F606949795679537951795179454
:10098000E118F10A430B560BC90BD00998F02395D7
:100990007E9173957A3308F070E37C932013B8F757
:1009A0007E9170617D9330F0839571E37D9370E368
:1009B0002A95E1F71124EF90FF900F911F91CF91AD
:1009C000DF91992787FD90950895DC0101C06D9313
:1009D00041505040E0F708952F923F924F925F921E
:1009E0006F927F928F929F92AF92BF92CF92DF923F
:1009F000EF92FF920F931F93CF93DF93CDB7DEB7A4
:100A0000CA1BDB0B0FB6F894DEBF0FBECDBF099437
:100A10002A88398848885F846E847D848C849B848E
:100A2000AA84B984C884DF80EE80FD800C811B819C
:100A3000AA81B981CE0FD11D0FB6F894DEBF0FBECB
:0A0A4000CDBFED010895F894FFCF3B
:100A4A00303030303030303030303030303030309C
:0C0A5A0000554152542D4F4B000D0A0076
:00000001FF
